:020000040000FA
:1000000008800020690000007100000079000000F5
:100010008100000089000000910000000000000045
:100020000000000000000000000000009900000037
:10003000A100000000000000A90000008D020000E7
:10004000B9000000C1000000C9000000D10000009C
:10005000DFF810D000F04CF800480047890300009A
:10006000AFF30080088000201B4880471B480047F2
:1000700000B500F0CCF800BD00B500F06BF800BD95
:1000800000B500F0C3F800BD00B500F043F800BDB6
:1000900000B500F042F900BD00B500F0DCF800BD8D
:1000A00000B500F038F800BD00B500F0B1F800BDB3
:1000B00000B500F0DDF800BD00B500F015F900BD99
:1000C00000B500F029F900BD00B500F00BF900BD46
:1000D00000B500F040F800BD9D0200005100000096
:1000E000421C10F8011B0029FBD1801A7047000048
:1000F000064C074D06E0E06840F0010394E8070075
:1001000098471034AC42F6D3FFF7A6FF6004000016
:10011000800400007047704710B58B780A88012B67
:1001200004D0022B04D0042B0AD105E0426107E081
:1001300004691443046103E084691443846100BFCB
:1001400000BF10BD42688A434260704742680A435C
:1001500042607047704710B5012000F029F910BDCA
:1001600070B504460026002510214FF0A040FFF78F
:10017000E9FF00BF26E004F0800028B180214FF0A5
:10018000A040FFF7E3FF04E080214FF0A040FFF71D
:10019000D9FF6006040E032000F0EBF820214FF099
:1001A000A040FFF7D3FF022000F0E3F86806050E39
:1001B000012000F0DEF820214FF0A040FFF7C2FF41
:1001C000701CC6B2082ED6DB10214FF0A040FFF7FE
:1001D000BDFF284670BD70B504460D461646102179
:1001E0004FF0A040FFF7AEFF05E02878FFF7B8FF1B
:1001F0002070641C6D1C301EA6F101018EB2F4D17A
:1002000010214FF0A040FFF7A1FF70BD704770476D
:10021000704708B5B020ADF8000002208DF802004C
:1002200069464FF0A040FFF777FF4020ADF800008F
:1002300001208DF8020069464FF0A040FFF76CFFE7
:1002400010214FF0A040FFF781FF20214FF0A04088
:10025000FFF778FF08BD70474FF0E0210861704755
:100260004FF0E021486170474FF0E021886170470E
:1002700010B50020FFF7F0FF0348006840F0007061
:100280000149086010BD000004ED00E0024800686C
:10029000401C014908607047000000201FB50F484E
:1002A0000F4908600120012181404209920002F1BA
:1002B000E022C2F8001100BF094800684FF4E131A4
:1002C000B0FBF1F4002000900190029001231A4647
:1002D00021460390980700F096F81FBD80F0FA02BF
:1002E000040000207047000010B54FF0804000F07F
:1002F00065F80446204600F05BF806A000F072F8AE
:1003000021464FF0804000F063F80A21480700F0D2
:100310005FF810BD4D333A007047704702E008C8DF
:10032000121F08C1002AFAD170477047002001E06F
:1003300001C1121F002AFBD1704700B50246002000
:10034000FFF78AFF1046FFF78BFF0020FFF78CFFB7
:100350000720FFF781FF30BF00BD00B5034603E073
:100360004CF25030FFF7E9FF181EA3F10103F7D15B
:1003700000BD00B5034602E03220FFF7DEFF181E85
:10038000A3F10103F8D100BD86B007A4FFF786FFF3
:10039000FFF73FFF07E00722214601A8FFF71BFFF9
:1003A0006420FFF7DAFFF6E741524D2D434D33004D
:1003B000014908607047000000100040014600BF7E
:1003C000486800F002000028FAD00868C0B2704700
:1003D00004E0426802F0010202B900E0F9E700BF60
:1003E0000160704770B505462846FFF779FE06465E
:1003F000002405E0295D4FF08040FFF7E9FF641C11
:10040000B442F7D370BD2DE9F04104460D46DDE955
:1004100008C8DDE9066700210AB141F001010BB10E
:1004200041F002010EB141F004010FB141F00801A9
:10043000BCF1000F01D041F01001B8F1000F01D064
:1004400041F020010020A0602561A160606800F0FB
:100450000C0010B10120BDE8F0810020FBE7000096
:100460008004000000000020080000001C030000C1
:100470008804000008000020008000002C03000019
:080480000000000080F0FA0208
:04000005000000698E
:00000001FF
